:1000000009C00EC00DC00CC00BC00AC009C008C09A
:1000100007C006C011241FBECFE9CDBFA7D0E2C0E4
:10002000EFCF88E893E1B09908C0009719F480E019
:1000300090E00895019700C0F6CF20E030E0B09B3B
:1000400007C02817390799F32F5F3F4F00C0F7CF3C
:10005000C9010895C09AB8980895B89AC098EFE475
:10006000F6E43197F1F700C00000C09AE7E5F2E04E
:100070003197F1F700C00000C098EBE2F1E0319752
:10008000F1F700C0000020E030E061E070E0AB017B
:10009000022E02C0440F551F0A94E2F74823592349
:1000A000C09A452B61F0EDEEF2E03197F1F700C018
:1000B0000000C098E2ECF1E03197F1F70BC0EBE201
:1000C000F1E03197F1F700C00000C098E4E8F3E0F8
:1000D0003197F1F72F5F3F4F20313105C1F6C09ABC
:1000E000B8988BE291E00197F1F700C00000089505
:1000F000CF92DF92EF92FF920F931F93CF93DF93F4
:10010000B099FECFB09BFECF8CDF7C010097F1F061
:10011000C0E0D0E000E010E0CC24C394D12C81DF1B
:100120000097B9F0E816F90648F4C601002E02C09F
:10013000880F991F0A94E2F7C82BD92B0F5F1F4F26
:100140000031110561F7B09BFECF06C08FEF9FEF26
:1001500004C080E090E001C0CE01DF91CF911F91FB
:100160000F91FF90EF90DF90CF90089582E088BBD1
:1001700017BA70DF2EE088E190E00FB6F894A895EA
:1001800081BD0FBE21BDC0E0D0E00CE010E0B19B0E
:1001900003C02196A895FBCFCE01B8010FD00396DE
:1001A0009C0120953095322F2227822B932B55DFEF
:1001B0009FDF82E09DEF51DF9BDFE9CFAA1BBB1BD6
:1001C00051E107C0AA1FBB1FA617B70710F0A61B57
:1001D000B70B881F991F5A95A9F780959095BC0178
:0801E000CD010895F894FFCF52
:00000001FF
